:1000000072C08CC08BC08AC089C088C087C086C0BF
:1000100085C084C083C082C081C080C07FC07EC0D4
:100020007DC07CC07BC0C1C0C0C0C4C0C8C0CCC083
:10003000D0C0D4C0D8C0DCC0E0C0E6C0EAC0EEC0CA
:10004000F2C0F6C039C13AC139C13AC13BC13CC165
:100050003DC13EC13FC140C141C142C143C144C194
:1000600048C149C107634236B79BD8A71A396856B9
:1000700018AEBAAB558C1D3CB7CC5763BD6DEDFDCA
:10008000753EF6177231BF000000803F0800000087
:10009000BE922449123EABAAAA2ABECDCCCC4C3E7D
:1000A00000000080BEABAAAAAA3E00000000BF006C
:1000B0000000803F0000000000084178D3BB438768
:1000C000D1133D190E3CC3BD4282AD2B3E68EC827C
:1000D00076BED98FE1A93E4C80EFFFBE01C4FF7F01
:1000E0003F000000000011241FBECFE5D2E0DEBFBC
:1000F000CDBF12E0A0E6B0E0E8E7F9E102C005906C
:100100000D92AA3EB107D9F713E0AAEEB2E001C002
:100110001D92AB30B107E1F765D32CCC71CF2F9294
:100120003F924F925F926F927F928F929F92AF9287
:10013000BF92CF92DF92EF92FF920F931F93CF93D4
:10014000DF930BEE12E0309160002091EA02B801DB
:1001500041E650E0C1E8D0E0F0E78F2EF2E09F2EBC
:10016000E4EF6E2EE1E07E2E90E9A92E91E0B92E0B
:1001700080E4C82E81E0D82EBCEDEB2EF12CA5E159
:100180002A2EF5E03F2EE2E04E2E55245394DB015B
:100190008C9190E0FC013197EF30F10508F050C0F0
:1001A000ED5EFF4FDA018C9109948BBB888188BB8F
:1001B000852D27C08BBB888188BB842D22C08BBB3B
:1001C000888188BB832D1DC08BBB888188BB8AE05A
:1001D00018C08BBB888188BB822D13C08BBB8881E4
:1001E00088BB85E20EC08BBB888188BB88E409C0D0
:1001F0008BBB888188BB85E804C08BBB888188BBAA
:1002000085ED8A95F1F71AC08BBB888188BBC70141
:1002100013C08BBB888188BBC6010EC08BBB888195
:1002200088BBC50109C08BBB888188BBC30104C0E2
:100230008BBB888188BBC4010197F1F73BBB28BB0E
:10024000B0E040385B0731F06F5F7F4F4F5F5F4F2B
:1002500021969DCF3BBB28BB60E3262E61E0362E66
:1002600054E9452E51E0552E40ED642E41E0742EA8
:100270003CE0832E32E0932E2AE3A22E22E0B22E1F
:1002800094E5C92E92E0D92E80E6E82E82E0F82E81
:10029000C8E6D2E0ACE6B2E06EE672E02FE632E00D
:1002A00040E752E0F8018081E82FF0E0E031F1050D
:1002B00010F5EE5DFF4F0994CA0118C0C90116C0C0
:1002C000CB0114C0CD0112C0CE0110C0C7010EC0B9
:1002D000C6010CC0C5010AC0C40108C0C30106C0E4
:1002E000C20104C0C10102C080EE90E00197F1F7A5
:1002F00005C085EA01C081E08A95F1F7F3E00A3094
:100300001F0719F00F5F1F4FCDCFDF91CF911F91C6
:100310000F91FF90EF90DF90CF90BF90AF909F90A4
:100320008F907F906F905F904F903F902F900895A7
:10033000DF92EF92FF920F931F93DF93CF930F9271
:10034000CDB7DEB7D62E7C0185E0EE0CFF1C8A957A
:10035000E1F7198200E041C020E030E08981A90185
:10036000480F511DF901E551FD4F403251052CF068
:100370008981E80FF11DB09703C08981E80FF11D55
:1003800020832F5F3F4F2031310541F74FE020E1BF
:1003900030E08981B901680F711DF901E551FD4F08
:1003A000603271052CF08981E80FF11DB09703C010
:1003B0008981E80FF11D408343502F5F3F4F442355
:1003C00041F71150ACDE112339F689818F5F8983A3
:1003D0008981803208F019820F5F802F90E08E159E
:1003E0009F0510F41D2DEFCF0F90CF91DF911F913E
:1003F0000F91FF90EF90DF900895EBEEF2E081E037
:10040000819393E0EB30F907D9F789DE089580E016
:1004100090E0FC01E551FD4F80830196803191050C
:10042000C1F77DDE08952F923F924F925F926F92B7
:100430007F928F929F92AF92BF92CF92DF92EF9274
:10044000FF920F931F93DF93CF93CDB7DEB7C054C6
:10045000D0400FB6F894DEBF0FBECDBF5C01562E64
:10046000DE011196E1EDF1E080E101900D92815005
:10047000E1F7DE015196E1ECF1E080E101900D92AF
:100480008150E1F7DE019196E1EBF1E080E101902E
:100490000D928150E1F7DE01D196E1EAF1E080E1D1
:1004A00001900D928150E1F7E52CE694E694CC247E
:1004B000DD243FE0432E1E010894211C311C21E164
:1004C000622E712C6C0E7D1E91E2892E912C8C0E69
:1004D0009D1E65C0119283E0EB30F807D9F700E06C
:1004E00010E0E1E3F0E0EC0FFD1FE00FF11F808171
:1004F000942D981BF101E00FF11FE081FF27E7FD2C
:10050000F095E551FD4F9083F301E00FF11FE0817D
:10051000FF27E7FDF095E551FD4F9083F401E00FD3
:10052000F11FE081FF27E7FDF095E551FD4F908336
:10053000FF2402C0F4DDF394F514E0F30F5F1F4FC6
:100540000031110571F6FF2425C0019383E0EB30E3
:10055000F807D9F710E0E3DD1F5FE116E0F701507F
:1005600011F401E010C0EBEEF2E0EFCF019393E065
:10057000EB30F907D9F710E0D2DD1F5FE116E0F7A5
:100580000F5F003119F0EBEEF2E0F0CFF39482E070
:10059000F81611F00EE0E7CF0894C11CD11CCA1464
:1005A000DB0418F4EBEEF2E095CFC05CDF4F0FB642
:1005B000F894DEBF0FBECDBFCF91DF911F910F9199
:1005C000FF90EF90DF90CF90BF90AF909F908F9073
:1005D0007F906F905F904F903F902F900895DF92A3
:1005E000EF92FF920F931F93CF93DF937C01D62E50
:1005F000C0E0D0E022C0019383E0EB30F807D9F7E8
:1006000010E08DDD1F5FD116E0F70F5F003111F4B0
:100610000EE00FC0EBEEF2E0EECF019383E0EB30A3
:10062000F807D9F710E07BDD1F5FD116E0F7015026
:1006300019F0EBEEF2E0F1CF2196CE15DF0510F4C4
:1006400001E0E8CFDF91CF911F910F91FF90EF90E4
:10065000DF9008956F927F928F929F92AF92BF9298
:10066000CF92DF92EF92FF920F931F93AA2797FDED
:10067000A095BA2FBC01CD01F9D33B014C0120E07C
:1006800030E040E450E4F7D65B016C01C401B301F3
:1006900020E030E040EA50E4EED67B018C01C60158
:1006A000B50120E030E040EC50EC39D39B01AC01C7
:1006B000C401B30118D25B016C01C801B70120E08D
:1006C00030E040EF52E42BD39B01AC01C601B501F1
:1006D0000AD226D4CB011F910F91FF90EF90DF90AB
:1006E000CF90BF90AF909F908F907F906F90089524
:1006F0004F925F926F927F928F929F92AF92BF9232
:10070000CF92DF92EF92FF920F931F93CF93DF93DD
:100710003C01EBEEF2E0119283E0EB30F807D9F701
:10072000862F90E065E070E05DD64C01AA24BB24E2
:100730004BEE442E42E0542E40C0CC24DD24C0E0D9
:10074000D0E0FE01EF55FF4FDE01AF5DBE4F60818F
:100750007181828193812D913D914D915C91EAD17E
:100760007B018C01B60180E090E02BD49B01AC01B1
:10077000C801B701B8D126E636E646E650E4CFD246
:10078000CFD3DC01CB0166DF66E970E02BD6F20146
:1007900080830894C11CD11C2496F0E2CF16D104AA
:1007A00081F610E002C0BBDC1F5F812F90E088154E
:1007B0009905CCF30894A11CB11CA614B70408F445
:1007C000BCCFDF91CF911F910F91FF90EF90DF9001
:1007D000CF90BF90AF909F908F907F906F905F90E1
:1007E0004F9008958CE387BB8FEF8ABB8FE08BBB64
:1007F00018BA85E090E065E07BDFFBCFA0E0B0E0D9
:10080000E3E0F4E001C6DC012B01FA019C91923097
:1008100008F439C1EB018881823008F433C1943087
:1008200069F4843009F02FC111969C911197898148
:10083000981709F428C1A1EEB1E025C1843009F46C
:1008400021C18230A9F4923009F01DC19A01AD0195
:1008500088E0EA010990AE01E90109929E01815008
:10086000C1F7E201898111969C918923818308C196
:10087000923009F407C112962D903C901397EB012A
:100880008A819B811496AD90BD90CD90DC90179796
:10089000EC80FD800E811F819101281B390BB9016D
:1008A00037FF04C066277727621B730B6032710520
:1008B0000CF061C0121613066CF537014801062EC4
:1008C00004C096948794779467940A94D2F721E0B1
:1008D00030E040E050E004C0220F331F441F551F9A
:1008E0006A95D2F721503040404050402E213F21A0
:1008F00040235123211531054105510521F021E007
:1009000030E040E050E079018A01E628F728082924
:1009100019293CC0232BD1F1260E371E3501460183
:10092000062E04C096948794779467940A94D2F71D
:1009300021E030E040E050E004C0220F331F441FAC
:10094000551F6A95D2F721503040404050402A212F
:100950003B214C215D21211531054105510521F037
:1009600021E030E040E050E059016A01A628B728B4
:10097000C828D9280BC0821593052CF01C01AA2485
:10098000BB24650103C0EE24FF24870111969C91CE
:10099000D20111968C91981709F445C0992339F02A
:1009A000A80197012A193B094C095D0906C0A60157
:1009B00095012E193F09400B510B57FD08C01182BC
:1009C0003382228224833583468357831DC081E08E
:1009D00081833382228288279927DC01821B930B33
:1009E000A40BB50B84839583A683B7830DC0220F18
:1009F000331F441F551F24833583468357838281C9
:100A00009381019793838283248135814681578125
:100A1000DA01C9010197A109B1098F5F9F4FAF4F5B
:100A2000BF4328F30BC0918333822282EA0CFB1C64
:100A30000C1D1D1DE482F5820683178383E08083ED
:100A4000248135814681578157FF1AC0C901AA27E1
:100A500097FDA095BA2F81709070A070B0705695D8
:100A6000479537952795822B932BA42BB52B848301
:100A70009583A683B7838281938101969383828332
:100A8000DF0101C0D201CD01CDB7DEB7E2E1D8C4AC
:100A9000A0E2B0E0EDE4F5E0C3C469837A838B8320
:100AA0009C832D833E834F835887E9E0EE2EF12C03
:100AB000EC0EFD1ECE010196B7011CD48E010F5E17
:100AC0001F4FCE010596B80115D48A8991E0892778
:100AD0008A8BC701B801AE01475E5F4F8FDE35D309
:100AE000A096E6E0B9C4A0E2B0E0E8E7F5E098C47B
:100AF00069837A838B839C832D833E834F835887BE
:100B0000F9E0EF2EF12CEC0EFD1ECE010196B7019F
:100B1000F1D38E010F5E1F4FCE010596B801EAD3C7
:100B2000C701B801AE01475E5F4F68DE0ED3A096E5
:100B3000E6E092C4A0E2B0E0EFE9F5E065C46983C5
:100B40007A838B839C832D833E834F835887CE018A
:100B50000196BE01675F7F4FCDD3CE010596BE01E2
:100B60006F5E7F4FC7D39985923088F08989823034
:100B7000C8F0943019F4823051F404C0843029F460
:100B8000923081F481EE91E0C6C0923049F420E0C9
:100B90009A858A89981321E02A87CE010996BBC0DD
:100BA000823049F420E09A858A89981321E02A8BC3
:100BB000CE014196B0C02D843E844F8458886D8804
:100BC0007E888F88988CEE24FF248701AA24BB247A
:100BD000650140E050E060E070E0E0E0F0E0C1017D
:100BE00081709070892BE9F0E60CF71C081D191D27
:100BF0009A01AB012A0D3B1D4C1D5D1D80E090E06C
:100C0000A0E0B0E0E614F7040805190520F481E03F
:100C100090E0A0E0B0E0BA01A901480F591F6A1F97
:100C20007B1FAA0CBB1CCC1CDD1C97FE08C081E0FE
:100C300090E0A0E0B0E0A82AB92ACA2ADB2A3196BF
:100C4000E032F10549F0660C771C881C991C56941B
:100C5000479437942794C3CFFA85EA892B893C8936
:100C60008B859C85280F391F2E5F3F4F17C0CA0107
:100C700081709070892B61F016950795F794E79431
:100C800080E090E0A0E0B0E8E82AF92A0A2B1B2BCC
:100C900076956795579547952F5F3F4F77FDE7CF3F
:100CA0000CC0440F551F661F771F17FD4160EE0CE7
:100CB000FF1C001F111F21503040403090E05907A9
:100CC00090E0690790E4790760F32B8F3C8FDB019C
:100CD000CA018F779070A070B07080349105A10523
:100CE000B10561F447FD0AC0E114F10401051105E5
:100CF00029F0405C5F4F6F4F7F4F40781A8EFE1790
:100D000011F081E08A8F4D8F5E8F6F8F78A383E023
:100D1000898FCE01499619D2A096E2E191C3A8E14C
:100D2000B0E0E4E9F6E078C369837A838B839C833F
:100D30002D833E834F835887B9E0EB2EF12CEC0EC8
:100D4000FD1ECE010196B701D5D28E010F5E1F4F59
:100D5000CE010596B801CED22985223008F47EC096
:100D60003989323010F4B8017CC08A859A89892784
:100D70008A87243011F0223031F4231709F06EC035
:100D800061EE71E06EC0343039F41D861E861F8618
:100D9000188A1C861B8604C0323021F484E08987BF
:100DA000B7015FC02B853C858B899C89281B390B3B
:100DB0003C872B87ED84FE840F851889AD88BE881B
:100DC000CF88D88CEA14FB040C051D0540F4EE0C0A
:100DD000FF1C001F111F215030403C872B8720E053
:100DE00030E040E050E080E090E0A0E0B0E460E07F
:100DF00070E0EA14FB040C051D0540F0282B392B8C
:100E00004A2B5B2BEA18FB080C091D09B695A79520
:100E100097958795EE0CFF1C001F111F6F5F7F4F8A
:100E20006F31710531F7DA01C9018F779070A070C9
:100E3000B07080349105A105B10561F427FD0AC0A9
:100E4000E114F1040105110529F0205C3F4F4F4FDB
:100E50005F4F20782D873E874F87588BBE01675F95
:100E60007F4FCB0172D16896EAE0F2C2A8E0B0E011
:100E7000EBE3F7E0D2C29B01AC0183E08983DA01A6
:100E8000C9018827B7FD83959927AA27BB27B82EC4
:100E9000211531054105510519F482E0898339C0D6
:100EA0008823A9F0203080E0380780E0480780E8F8
:100EB000580729F460E070E080E09FEC2EC0EE243B
:100EC000FF248701E21AF30A040B150B02C0790113
:100ED0008A018EE1C82ED12CDC82CB82ED82FE828B
:100EE0000F831887C801B701E1D0019718161906BA
:100EF00084F4082E04C0EE0CFF1C001F111F0A947E
:100F0000D2F7ED82FE820F831887C81AD90ADC82D5
:100F1000CB82BA82CE01019618D12896E9E099C217
:100F2000ACE0B0E0E5E9F7E07FC269837A838B83C8
:100F30009C83CE010196BE016B5F7F4FDBD18D811B
:100F4000823061F1823050F1843021F48E81882327
:100F500051F12EC02F81388537FD20C06E812F3191
:100F600031051CF06623F9F023C08EE190E0821B6E
:100F7000930B29853A854B855C8504C0569547952A
:100F8000379527958A95D2F76623B1F0509540950D
:100F9000309521953F4F4F4F5F4F0EC020E030E01E
:100FA00040E050E009C02FEF3FEF4FEF5FE704C094
:100FB00020E030E040E050E8B901CA012C96E2E0C0
:100FC0004FC2A8E0B0E0E6EEF7E026C27B018C015C
:100FD000611571058105910519F482E089835FC06F
:100FE00083E089838EE1C82ED12CDC82CB82ED8216
:100FF000FE820F831887C801B70158D0FC013197D2
:10100000F7FF3BC0222733272E1B3F0B57016801F8
:10101000022E04C0D694C794B794A7940A94D2F72A
:1010200040E050E060E070E081E090E0A0E0B0E0FF
:1010300004C0880F991FAA1FBB1F2A95D2F70197DA
:10104000A109B1098E219F21A023B1230097A105F9
:10105000B10521F041E050E060E070E04A295B29F1
:101060006C297D294D835E836F8378878EE190E0C4
:101070008E1B9F0B9C838B8312C0309781F00E2EAA
:1010800004C0EE0CFF1C001F111F0A94D2F7ED8262
:10109000FE820F831887CE1ADF0ADC82CB821A8287
:1010A000CE01019652D02896EAE0D2C1EF92FF928B
:1010B0000F931F937B018C0180E0E81680E0F80617
:1010C00081E0080780E0180788F48FEFE816F10444
:1010D0000105110531F028F088E090E0A0E0B0E0D3
:1010E00017C080E090E0A0E0B0E012C080E0E81619
:1010F00080E0F80680E0080781E0180728F088E122
:1011000090E0A0E0B0E004C080E190E0A0E0B0E0BA
:1011100020E230E040E050E0281B390B4A0B5B0B2B
:1011200004C016950795F794E7948A95D2F7F701CE
:10113000E751FE4F8081281B310941095109C9013E
:101140001F910F91FF90EF900895DF92EF92FF9221
:101150000F931F93FC01E480F58006811781D180F5
:101160008081823048F480E090E0A0E1B0E0E82A9D
:10117000F92A0A2B1B2BA5C0843009F49FC08230AA
:1011800021F4EE24FF24870105C0E114F1040105D8
:10119000110519F4E0E0F0E096C0628173819FEFE1
:1011A000623879070CF05BC022E83FEF261B370B53
:1011B0002A3131052CF020E030E040E050E02AC038
:1011C000B801A701022E04C07695679557954795FB
:1011D0000A94D2F781E090E0A0E0B0E004C0880F6C
:1011E000991FAA1FBB1F2A95D2F70197A109B10920
:1011F0008E219F21A023B1230097A105B10521F0E5
:1012000081E090E0A0E0B0E09A01AB01282B392BFF
:101210004A2B5B2BDA01C9018F779070A070B070F8
:1012200080349105A105B10539F427FF09C0205C80
:101230003F4F4F4F5F4F04C0215C3F4F4F4F5F4FB9
:10124000E0E0F0E02030A0E03A07A0E04A07A0E4A8
:101250005A0710F0E1E0F0E079018A0127C0603818
:10126000710564F5FB01E158FF4FD801C7018F7785
:101270009070A070B07080349105A105B10539F46B
:10128000E7FE0DC080E490E0A0E0B0E004C08FE392
:1012900090E0A0E0B0E0E80EF91E0A1F1B1F17FF48
:1012A00005C016950795F794E794319687E0169553
:1012B0000795F794E7948A95D1F705C0EE24FF24AB
:1012C0008701EFEFF0E06E2F679566276795902F07
:1012D0009F77D794DD24D7948E2F8695492F462B60
:1012E000582F5D29B701CA011F910F91FF90EF9010
:1012F000DF900895FC01DB01408151812281622F42
:101300006F7770E0221F2227221F9381892F880F79
:10131000822B282F30E0991F9927991F11969C93B3
:10132000119721153105A9F5411551056105710583
:1013300011F482E037C082E89FEF13969C938E935E
:1013400012979A01AB0167E0220F331F441F551F0C
:101350006A95D1F783E08C930DC0220F331F441F91
:10136000551F12968D919C911397019713969C93FC
:101370008E931297203080E0380780E0480780E4A1
:10138000580758F314962D933D934D935C931797FC
:1013900008952F3F310579F4411551056105710517
:1013A00019F484E08C93089564FF03C081E08C936A
:1013B00012C01C9210C02F57304013963C932E93AE
:1013C000129783E08C9387E0440F551F661F771FA9
:1013D0008A95D1F7706414964D935D936D937C93C9
:1013E000179708955527002480FF02C0060E571F47
:1013F000660F771F6115710521F096958795009707
:1014000099F7952F802D08952F923F924F925F92DA
:101410006F927F928F929F92AF92BF92CF92DF9204
:10142000EF92FF920F931F93CF93DF93CDB7DEB769
:10143000CA1BDB0B0FB6F894DEBF0FBECDBF0994FD
:101440002A88398848885F846E847D848C849B8454
:10145000AA84B984C884DF80EE80FD800C811B8162
:10146000AA81B981CE0FD11D0FB6F894DEBF0FBE91
:10147000CDBFED010895FA01EE0FFF1F3096210553
:10148000310599F16115710561F48038BFE39B075F
:1014900049F168949038810561F08038BFEF9B076F
:1014A00041F0992342F5FF3FE1053105210511F196
:1014B000E8940894E795D901AA2329F4AB2FBE2F0D
:1014C000F85FD0F310C0FF5F70F4A695E0F7F7392E
:1014D00050F019F0FF3A38F49F779F930CD00F909B
:1014E00007FC905808953EF049C060E070E080E845
:1014F0009FE308954FE79F775F934F933F932F9319
:10150000D0D02F913F914F915F9114DB05C019F41A
:101510000EF02EC07DC032C061D0C8F39638C0F73F
:1015200007F80F92E8942BE33AEA48EB5FE737D1EC
:101530000F920F920F924DB75EB70F92F2D0E4E682
:10154000F0E01FD04F915F91EF91FF91E595EE1F75
:10155000FF1F49F0FE57E0684427EE0F441FFA953D
:10156000E1F74195550B64D00F9007FE58C00895E0
:1015700097F99F6780E870E060E008959FEF80EC46
:101580000895DF93CF931F930F93FF92EF92DF9213
:101590007B018C01689405C0DA2EEF01FED0FE01BC
:1015A000E894A5912591359145915591AEF3EF01C0
:1015B00061D1FE019701A801DA9479F7DF90EF90ED
:1015C000FF900F911F91CF91DF91089557FD905893
:1015D000440F551F59F05F3F71F04795880F97FBF7
:1015E000991F61F09F3F79F08795089512161306B1
:1015F0001406551FF2CF4695F1DF08C016161706E0
:101600001806991FF1CF8695710561050894089514
:10161000E894BB2766277727CB0197F908959B01AC
:10162000AC0160E070E080E89FE379CBA1CF75C1A9
:10163000D5DFE8F39923D9F3940F511DBBF39150F3
:10164000504094F059F0882332F0660F771F881FBE
:1016500091505040C1F79E3F510544F7880F911DAE
:101660009695879597F908955F3FACF0983E9CF06A
:10167000BB27869577956795B79508F4B1609395E4
:10168000C1F7BB0F58F711F460FFE8CF6F5F7F4FD2
:101690008F4F9F4FE3CFBDCF0EF03FC16FCF689408
:1016A00067CF9CDFC8F39923D1F3C6F3DF93CF93C1
:1016B0001F930F93FF92C92FDD2788232AF02197CC
:1016C000660F771F881FDAF720E030E040E85FEB15
:1016D0009FE3883920F0803E30F021968F7703DA3F
:1016E000ECE8F0E003C0FFD9E9EBF0E04ADF8B0162
:1016F000BE01EC01FB2E6F5771097595771F880BA2
:10170000990BB4DB28E132E741E35FE346D0AF2D2C
:101710009801AE01FF900F911F91CF91DF91AAD058
:1017200018C1FA01DC01AA0FBB1F9B01AC01BF5716
:1017300028F422273327442750781FC0B75188F454
:10174000AB2F0024469537952795011CA395D2F31E
:10175000002069F0220F331F441FB395DAF30DD038
:1017600097C961307105A0E88A07B94630F49B013A
:10177000AC016627772788279078309621F0208360
:101780003183428353830895D6D028F0DBD018F0FC
:10179000952309F0EDCEF2CE3CCF18DFA8F39923C4
:1017A000D9F35523C9F3950F50E0551FAA27EE270B
:1017B000FF27BB2700240894679520F4E20FF31F4E
:1017C000B41F0A1E220F331F441FAA1F6695A9F7D4
:1017D000779530F4F30FB41F0A1E121E08F46395B8
:1017E000330F441FAA1F221F769599F7879520F47F
:1017F000B40F0A1E121E631F440FAA1F221F331F9D
:101800008695A9F7862F712D602D11249F57504082
:101810008AF0E1F088234AF0EE0FFF1FBB1F661F1E
:10182000771F881F91505040A9F79E3F510570F0D7
:101830009FCEEFCE5F3FECF3983EDCF38695779535
:101840006795B795F795E7959F5FC1F7FE2B880FD2
:10185000911D9695879597F908956DD030F072D0C7
:1018600020F031F49F3F11F41EF488CE0EF4E09581
:10187000E7FB7ECEE92FAADE80F3BA176207730773
:101880008407950718F071F49EF5C2CE0EF4E0952A
:101890000B2EBA2FA02D0B01B90190010C01CA012A
:1018A000A0011124FF27591B99F0593F50F4503ED5
:1018B00068F11A16F040A22F232F342F4427585FC7
:1018C000F3CF469537952795A795F0405395C9F7DF
:1018D0007EF41F16BA0B620B730B840BBAF0915097
:1018E000A1F0FF0FBB1F661F771F881FC2F70EC036
:1018F000BA0F621F731F841F48F487957795679509
:10190000B795F7959E3F08F0B3CF9395880F08F0F1
:101910009927EE0F9795879508959F3F31F0915045
:1019200020F4879577956795B795880F911D9695C3
:10193000879597F9089500240A9416161706180635
:101940000906089500240A941216130614060506C3
:101950000895092E0394000C11F4882352F0BB0F54
:1019600040F4BF2B11F460FF04C06F5F7F4F8F4FB7
:081970009F4F0895F894FFCF8A
:101978000F1E2E4E8E0E0E0E0E1D2D4D8D0D0D0DA5
:101988000D1B2B4B8B0B0B0B0B17274787070707D9
:1019980007000000000810200400000000081020C4
:1019A80004000000000810200400000000081020B7
:1019B80004CDCC4C3FCDCCCC3F333313400000405A
:1019C80040666666409A9989400000A04000004041
:1019D80040000040400000404000004040000040FF
:1019E80040CDCC2C4066662640CDCC0C400000C0D3
:1019F8003FCDCC4C3FCDCCCC3F33331340000040DF
:101A080040666666409A9989400000A04000004000
:101A180040000040400000404000004040000040BE
:101A280040000060406666664033338340CDCC8C0E
:101A380040CDCC4C3FCDCC4C3FCDCC4C3FCDCC4C0D
:101A48003FCDCC4C3FCDCC4C3FCDCC4C3F3333B3CA
:101A58003F0000004066662640333353409A997928
:101A680040CDCC2C4066660640CDCCCC3F9A9999A7
:101A78003F0000904000009040000090400000901F
:101A8800400000904000009040000090406666A62C
:101A9800409A99B9409A99C940CDCCDC400000F0F1
:101AA80040CDCCCC40CDCCBC40CDCCAC400000A08F
:101AB800400000000000000000000000000A0A0AC0
:101AC8000A030201000A0B121110191A1B1F1E1D0E
:101AD8001C030405060A0B141516191A1B1F1E1DD4
:101AE8001C030708090A0B131718191A1B0F0E0DE8
:101AF8000C000000000000000000010202030303C4
:101B08000304040404040404040505050505050587
:101B18000505050505050505050606060606060666
:101B2800060606060606060606060606060606064D
:101B38000606060606060606060707070707070736
:101B4800070707070707070707070707070707071D
:101B5800070707070707070707070707070707070D
:101B680007070707070707070707070707070707FD
:101B780007070707070707070708080808080808E6
:101B880008080808080808080808080808080808CD
:101B980008080808080808080808080808080808BD
:101BA80008080808080808080808080808080808AD
:101BB800080808080808080808080808080808089D
:101BC800080808080808080808080808080808088D
:101BD800080808080808080808080808080808087D
:101BE800080808080808080808080808080808086D
:0A1BF800080808080808080808009B
:00000001FF
